{"abi":[{"type":"function","name":"changeValue","inputs":[{"name":"newValue","type":"uint256","internalType":"uint256"}],"outputs":[],"stateMutability":"nonpayable"},{"type":"function","name":"doMoreMathAgain","inputs":[{"name":"myNumber","type":"uint128","internalType":"uint128"}],"outputs":[{"name":"","type":"uint256","internalType":"uint256"}],"stateMutability":"nonpayable"},{"type":"function","name":"myValue","inputs":[],"outputs":[{"name":"","type":"uint256","internalType":"uint256"}],"stateMutability":"view"},{"type":"function","name":"storedValue","inputs":[],"outputs":[{"name":"","type":"uint256","internalType":"uint256"}],"stateMutability":"view"}],"bytecode":{"object":"0x608060405260015f556064600155348015610018575f80fd5b50610316806100265f395ff3fe608060405234801561000f575f80fd5b506004361061004a575f3560e01c80632c1109461461004e57806347f1aae71461007e5780636d619daa1461009c578063f965e32e146100ba575b5f80fd5b61006860048036038101906100639190610172565b6100d6565b60405161007591906101b5565b60405180910390f35b610086610115565b60405161009391906101b5565b60405180910390f35b6100a461011a565b6040516100b191906101b5565b60405180910390f35b6100d460048036038101906100cf91906101f8565b610120565b005b5f805f546001846fffffffffffffffffffffffffffffffff166100f9919061027d565b61010391906102ad565b90508060018190555080915050919050565b5f5481565b60015481565b805f8190555050565b5f80fd5b5f6fffffffffffffffffffffffffffffffff82169050919050565b6101518161012d565b811461015b575f80fd5b50565b5f8135905061016c81610148565b92915050565b5f6020828403121561018757610186610129565b5b5f6101948482850161015e565b91505092915050565b5f819050919050565b6101af8161019d565b82525050565b5f6020820190506101c85f8301846101a6565b92915050565b6101d78161019d565b81146101e1575f80fd5b50565b5f813590506101f2816101ce565b92915050565b5f6020828403121561020d5761020c610129565b5b5f61021a848285016101e4565b91505092915050565b7f4e487b71000000000000000000000000000000000000000000000000000000005f52601260045260245ffd5b7f4e487b71000000000000000000000000000000000000000000000000000000005f52601160045260245ffd5b5f6102878261019d565b91506102928361019d565b9250826102a2576102a1610223565b5b828204905092915050565b5f6102b78261019d565b91506102c28361019d565b92508282019050808211156102da576102d9610250565b5b9291505056fea26469706673582212206d2ff4148f092d3ce2a975d40a1f084ea9fdbd00f1df1eceba2cd5663f3de14164736f6c63430008140033","linkReferences":{}},"methodIdentifiers":{"changeValue(uint256)":"f965e32e","doMoreMathAgain(uint128)":"2c110946","myValue()":"47f1aae7","storedValue()":"6d619daa"},"id":29}