{"abi":[{"type":"function","name":"doMath","inputs":[{"name":"myNumber","type":"uint128","internalType":"uint128"}],"outputs":[{"name":"","type":"uint256","internalType":"uint256"}],"stateMutability":"pure"}],"bytecode":{"object":"0x608060405234801561000f575f80fd5b506101658061001d5f395ff3fe608060405234801561000f575f80fd5b5060043610610029575f3560e01c806351d141541461002d575b5f80fd5b610047600480360381019061004291906100d3565b61005d565b6040516100549190610116565b60405180910390f35b5f6002826fffffffffffffffffffffffffffffffff1603610080575f9050610085565b600190505b919050565b5f80fd5b5f6fffffffffffffffffffffffffffffffff82169050919050565b6100b28161008e565b81146100bc575f80fd5b50565b5f813590506100cd816100a9565b92915050565b5f602082840312156100e8576100e761008a565b5b5f6100f5848285016100bf565b91505092915050565b5f819050919050565b610110816100fe565b82525050565b5f6020820190506101295f830184610107565b9291505056fea2646970667358221220129c35b91f25dae39dd81ad93a9b3963b2768707766cbab7bdcb80622c592b6c64736f6c63430008140033","linkReferences":{}},"methodIdentifiers":{"doMath(uint128)":"51d14154"},"id":30}