{"abi":[{"type":"constructor","inputs":[],"stateMutability":"nonpayable"},{"type":"function","name":"changeName","inputs":[{"name":"_newName","type":"string","internalType":"string"}],"outputs":[],"stateMutability":"nonpayable"},{"type":"function","name":"privateCompanyName","inputs":[],"outputs":[{"name":"","type":"string","internalType":"string"}],"stateMutability":"view"}],"bytecode":{"object":"0x60806040526040518060400160405280601181526020017f536563726574436f6d70616e794e616d650000000000000000000000000000008152505f908162000049919062000301565b5034801562000056575f80fd5b503360015f6101000a81548173ffffffffffffffffffffffffffffffffffffffff021916908373ffffffffffffffffffffffffffffffffffffffff160217905550620003e5565b5f81519050919050565b7f4e487b71000000000000000000000000000000000000000000000000000000005f52604160045260245ffd5b7f4e487b71000000000000000000000000000000000000000000000000000000005f52602260045260245ffd5b5f60028204905060018216806200011957607f821691505b6020821081036200012f576200012e620000d4565b5b50919050565b5f819050815f5260205f209050919050565b5f6020601f8301049050919050565b5f82821b905092915050565b5f60088302620001937fffffffffffffffffffffffffffffffffffffffffffffffffffffffffffffffff8262000156565b6200019f868362000156565b95508019841693508086168417925050509392505050565b5f819050919050565b5f819050919050565b5f620001e9620001e3620001dd84620001b7565b620001c0565b620001b7565b9050919050565b5f819050919050565b6200020483620001c9565b6200021c6200021382620001f0565b84845462000162565b825550505050565b5f90565b6200023262000224565b6200023f818484620001f9565b505050565b5b8181101562000266576200025a5f8262000228565b60018101905062000245565b5050565b601f821115620002b5576200027f8162000135565b6200028a8462000147565b810160208510156200029a578190505b620002b2620002a98562000147565b83018262000244565b50505b505050565b5f82821c905092915050565b5f620002d75f1984600802620002ba565b1980831691505092915050565b5f620002f18383620002c6565b9150826002028217905092915050565b6200030c826200009d565b67ffffffffffffffff811115620003285762000327620000a7565b5b62000334825462000101565b620003418282856200026a565b5f60209050601f83116001811462000377575f841562000362578287015190505b6200036e8582620002e4565b865550620003dd565b601f198416620003878662000135565b5f5b82811015620003b05784890151825560018201915060208501945060208101905062000389565b86831015620003d05784890151620003cc601f891682620002c6565b8355505b6001600288020188555050505b505050505050565b61073c80620003f35f395ff3fe608060405234801561000f575f80fd5b5060043610610034575f3560e01c806307edc256146100385780635353a2d814610056575b5f80fd5b610040610072565b60405161004d9190610228565b60405180910390f35b610070600480360381019061006b9190610385565b6100fd565b005b5f805461007e906103f9565b80601f01602080910402602001604051908101604052809291908181526020018280546100aa906103f9565b80156100f55780601f106100cc576101008083540402835291602001916100f5565b820191905f5260205f20905b8154815290600101906020018083116100d857829003601f168201915b505050505081565b60015f9054906101000a900473ffffffffffffffffffffffffffffffffffffffff1673ffffffffffffffffffffffffffffffffffffffff163373ffffffffffffffffffffffffffffffffffffffff161461018c576040517f08c379a000000000000000000000000000000000000000000000000000000000815260040161018390610473565b60405180910390fd5b805f908161019a9190610637565b5050565b5f81519050919050565b5f82825260208201905092915050565b5f5b838110156101d55780820151818401526020810190506101ba565b5f8484015250505050565b5f601f19601f8301169050919050565b5f6101fa8261019e565b61020481856101a8565b93506102148185602086016101b8565b61021d816101e0565b840191505092915050565b5f6020820190508181035f83015261024081846101f0565b905092915050565b5f604051905090565b5f80fd5b5f80fd5b5f80fd5b5f80fd5b7f4e487b71000000000000000000000000000000000000000000000000000000005f52604160045260245ffd5b610297826101e0565b810181811067ffffffffffffffff821117156102b6576102b5610261565b5b80604052505050565b5f6102c8610248565b90506102d4828261028e565b919050565b5f67ffffffffffffffff8211156102f3576102f2610261565b5b6102fc826101e0565b9050602081019050919050565b828183375f83830152505050565b5f610329610324846102d9565b6102bf565b9050828152602081018484840111156103455761034461025d565b5b610350848285610309565b509392505050565b5f82601f83011261036c5761036b610259565b5b813561037c848260208601610317565b91505092915050565b5f6020828403121561039a57610399610251565b5b5f82013567ffffffffffffffff8111156103b7576103b6610255565b5b6103c384828501610358565b91505092915050565b7f4e487b71000000000000000000000000000000000000000000000000000000005f52602260045260245ffd5b5f600282049050600182168061041057607f821691505b602082108103610423576104226103cc565b5b50919050565b7f4e6f7420746865204d616e6167657200000000000000000000000000000000005f82015250565b5f61045d600f836101a8565b915061046882610429565b602082019050919050565b5f6020820190508181035f83015261048a81610451565b9050919050565b5f819050815f5260205f209050919050565b5f6020601f8301049050919050565b5f82821b905092915050565b5f600883026104ed7fffffffffffffffffffffffffffffffffffffffffffffffffffffffffffffffff826104b2565b6104f786836104b2565b95508019841693508086168417925050509392505050565b5f819050919050565b5f819050919050565b5f61053b6105366105318461050f565b610518565b61050f565b9050919050565b5f819050919050565b61055483610521565b61056861056082610542565b8484546104be565b825550505050565b5f90565b61057c610570565b61058781848461054b565b505050565b5b818110156105aa5761059f5f82610574565b60018101905061058d565b5050565b601f8211156105ef576105c081610491565b6105c9846104a3565b810160208510156105d8578190505b6105ec6105e4856104a3565b83018261058c565b50505b505050565b5f82821c905092915050565b5f61060f5f19846008026105f4565b1980831691505092915050565b5f6106278383610600565b9150826002028217905092915050565b6106408261019e565b67ffffffffffffffff81111561065957610658610261565b5b61066382546103f9565b61066e8282856105ae565b5f60209050601f83116001811461069f575f841561068d578287015190505b610697858261061c565b8655506106fe565b601f1984166106ad86610491565b5f5b828110156106d4578489015182556001820191506020850194506020810190506106af565b868310156106f157848901516106ed601f891682610600565b8355505b6001600288020188555050505b50505050505056fea2646970667358221220c923d090496ed58faf034811e16e2edce51c8903aa8e59af71d3e09ee838cc1964736f6c63430008140033","linkReferences":{}},"methodIdentifiers":{"changeName(string)":"5353a2d8","privateCompanyName()":"07edc256"},"id":31}