{"abi":[{"type":"constructor","inputs":[],"stateMutability":"nonpayable"},{"type":"function","name":"allowance","inputs":[{"name":"owner","type":"address","internalType":"address"},{"name":"spender","type":"address","internalType":"address"}],"outputs":[{"name":"","type":"uint256","internalType":"uint256"}],"stateMutability":"view"},{"type":"function","name":"approve","inputs":[{"name":"spender","type":"address","internalType":"address"},{"name":"value","type":"uint256","internalType":"uint256"}],"outputs":[{"name":"","type":"bool","internalType":"bool"}],"stateMutability":"nonpayable"},{"type":"function","name":"balanceOf","inputs":[{"name":"account","type":"address","internalType":"address"}],"outputs":[{"name":"","type":"uint256","internalType":"uint256"}],"stateMutability":"view"},{"type":"function","name":"decimals","inputs":[],"outputs":[{"name":"","type":"uint8","internalType":"uint8"}],"stateMutability":"view"},{"type":"function","name":"deposit","inputs":[],"outputs":[],"stateMutability":"payable"},{"type":"function","name":"mint","inputs":[{"name":"to","type":"address","internalType":"address"},{"name":"amount","type":"uint256","internalType":"uint256"}],"outputs":[],"stateMutability":"nonpayable"},{"type":"function","name":"name","inputs":[],"outputs":[{"name":"","type":"string","internalType":"string"}],"stateMutability":"view"},{"type":"function","name":"symbol","inputs":[],"outputs":[{"name":"","type":"string","internalType":"string"}],"stateMutability":"view"},{"type":"function","name":"totalSupply","inputs":[],"outputs":[{"name":"","type":"uint256","internalType":"uint256"}],"stateMutability":"view"},{"type":"function","name":"transfer","inputs":[{"name":"to","type":"address","internalType":"address"},{"name":"value","type":"uint256","internalType":"uint256"}],"outputs":[{"name":"","type":"bool","internalType":"bool"}],"stateMutability":"nonpayable"},{"type":"function","name":"transferFrom","inputs":[{"name":"from","type":"address","internalType":"address"},{"name":"to","type":"address","internalType":"address"},{"name":"value","type":"uint256","internalType":"uint256"}],"outputs":[{"name":"","type":"bool","internalType":"bool"}],"stateMutability":"nonpayable"},{"type":"function","name":"withdraw","inputs":[{"name":"amount","type":"uint256","internalType":"uint256"}],"outputs":[],"stateMutability":"nonpayable"},{"type":"event","name":"Approval","inputs":[{"name":"owner","type":"address","indexed":true,"internalType":"address"},{"name":"spender","type":"address","indexed":true,"internalType":"address"},{"name":"value","type":"uint256","indexed":false,"internalType":"uint256"}],"anonymous":false},{"type":"event","name":"Transfer","inputs":[{"name":"from","type":"address","indexed":true,"internalType":"address"},{"name":"to","type":"address","indexed":true,"internalType":"address"},{"name":"value","type":"uint256","indexed":false,"internalType":"uint256"}],"anonymous":false},{"type":"error","name":"ERC20InsufficientAllowance","inputs":[{"name":"spender","type":"address","internalType":"address"},{"name":"allowance","type":"uint256","internalType":"uint256"},{"name":"needed","type":"uint256","internalType":"uint256"}]},{"type":"error","name":"ERC20InsufficientBalance","inputs":[{"name":"sender","type":"address","internalType":"address"},{"name":"balance","type":"uint256","internalType":"uint256"},{"name":"needed","type":"uint256","internalType":"uint256"}]},{"type":"error","name":"ERC20InvalidApprover","inputs":[{"name":"approver","type":"address","internalType":"address"}]},{"type":"error","name":"ERC20InvalidReceiver","inputs":[{"name":"receiver","type":"address","internalType":"address"}]},{"type":"error","name":"ERC20InvalidSender","inputs":[{"name":"sender","type":"address","internalType":"address"}]},{"type":"error","name":"ERC20InvalidSpender","inputs":[{"name":"spender","type":"address","internalType":"address"}]}],"bytecode":{"object":"0x608060405234801562000010575f80fd5b506040518060400160405280600881526020017f4d6f636b574554480000000000000000000000000000000000000000000000008152506040518060400160405280600581526020017f4d5745544800000000000000000000000000000000000000000000000000000081525081600390816200008e91906200030d565b508060049081620000a091906200030d565b505050620003f1565b5f81519050919050565b7f4e487b71000000000000000000000000000000000000000000000000000000005f52604160045260245ffd5b7f4e487b71000000000000000000000000000000000000000000000000000000005f52602260045260245ffd5b5f60028204905060018216806200012557607f821691505b6020821081036200013b576200013a620000e0565b5b50919050565b5f819050815f5260205f209050919050565b5f6020601f8301049050919050565b5f82821b905092915050565b5f600883026200019f7fffffffffffffffffffffffffffffffffffffffffffffffffffffffffffffffff8262000162565b620001ab868362000162565b95508019841693508086168417925050509392505050565b5f819050919050565b5f819050919050565b5f620001f5620001ef620001e984620001c3565b620001cc565b620001c3565b9050919050565b5f819050919050565b6200021083620001d5565b620002286200021f82620001fc565b8484546200016e565b825550505050565b5f90565b6200023e62000230565b6200024b81848462000205565b505050565b5b818110156200027257620002665f8262000234565b60018101905062000251565b5050565b601f821115620002c1576200028b8162000141565b620002968462000153565b81016020851015620002a6578190505b620002be620002b58562000153565b83018262000250565b50505b505050565b5f82821c905092915050565b5f620002e35f1984600802620002c6565b1980831691505092915050565b5f620002fd8383620002d2565b9150826002028217905092915050565b6200031882620000a9565b67ffffffffffffffff811115620003345762000333620000b3565b5b6200034082546200010d565b6200034d82828562000276565b5f60209050601f83116001811462000383575f84156200036e578287015190505b6200037a8582620002f0565b865550620003e9565b601f198416620003938662000141565b5f5b82811015620003bc5784890151825560018201915060208501945060208101905062000395565b86831015620003dc5784890151620003d8601f891682620002d2565b8355505b6001600288020188555050505b505050505050565b61106b80620003ff5f395ff3fe6080604052600436106100a6575f3560e01c806340c10f191161006357806340c10f19146101c857806370a08231146101f057806395d89b411461022c578063a9059cbb14610256578063d0e30db014610292578063dd62ed3e1461029c576100a6565b806306fdde03146100aa578063095ea7b3146100d457806318160ddd1461011057806323b872dd1461013a5780632e1a7d4d14610176578063313ce5671461019e575b5f80fd5b3480156100b5575f80fd5b506100be6102d8565b6040516100cb9190610cb9565b60405180910390f35b3480156100df575f80fd5b506100fa60048036038101906100f59190610d6a565b610368565b6040516101079190610dc2565b60405180910390f35b34801561011b575f80fd5b5061012461038a565b6040516101319190610dea565b60405180910390f35b348015610145575f80fd5b50610160600480360381019061015b9190610e03565b610393565b60405161016d9190610dc2565b60405180910390f35b348015610181575f80fd5b5061019c60048036038101906101979190610e53565b6103c1565b005b3480156101a9575f80fd5b506101b2610412565b6040516101bf9190610e99565b60405180910390f35b3480156101d3575f80fd5b506101ee60048036038101906101e99190610d6a565b61041a565b005b3480156101fb575f80fd5b5061021660048036038101906102119190610eb2565b610428565b6040516102239190610dea565b60405180910390f35b348015610237575f80fd5b5061024061046d565b60405161024d9190610cb9565b60405180910390f35b348015610261575f80fd5b5061027c60048036038101906102779190610d6a565b6104fd565b6040516102899190610dc2565b60405180910390f35b61029a61051f565b005b3480156102a7575f80fd5b506102c260048036038101906102bd9190610edd565b61052b565b6040516102cf9190610dea565b60405180910390f35b6060600380546102e790610f48565b80601f016020809104026020016040519081016040528092919081815260200182805461031390610f48565b801561035e5780601f106103355761010080835404028352916020019161035e565b820191905f5260205f20905b81548152906001019060200180831161034157829003601f168201915b5050505050905090565b5f806103726105ad565b905061037f8185856105b4565b600191505092915050565b5f600254905090565b5f8061039d6105ad565b90506103aa8582856105c6565b6103b5858585610659565b60019150509392505050565b6103cb3382610749565b3373ffffffffffffffffffffffffffffffffffffffff166108fc8290811502906040515f60405180830381858888f1935050505015801561040e573d5f803e3d5ffd5b5050565b5f6012905090565b61042482826107c8565b5050565b5f805f8373ffffffffffffffffffffffffffffffffffffffff1673ffffffffffffffffffffffffffffffffffffffff1681526020019081526020015f20549050919050565b60606004805461047c90610f48565b80601f01602080910402602001604051908101604052809291908181526020018280546104a890610f48565b80156104f35780601f106104ca576101008083540402835291602001916104f3565b820191905f5260205f20905b8154815290600101906020018083116104d657829003601f168201915b5050505050905090565b5f806105076105ad565b9050610514818585610659565b600191505092915050565b61052933346107c8565b565b5f60015f8473ffffffffffffffffffffffffffffffffffffffff1673ffffffffffffffffffffffffffffffffffffffff1681526020019081526020015f205f8373ffffffffffffffffffffffffffffffffffffffff1673ffffffffffffffffffffffffffffffffffffffff1681526020019081526020015f2054905092915050565b5f33905090565b6105c18383836001610847565b505050565b5f6105d1848461052b565b90507fffffffffffffffffffffffffffffffffffffffffffffffffffffffffffffffff8110156106535781811015610644578281836040517ffb8f41b200000000000000000000000000000000000000000000000000000000815260040161063b93929190610f87565b60405180910390fd5b61065284848484035f610847565b5b50505050565b5f73ffffffffffffffffffffffffffffffffffffffff168373ffffffffffffffffffffffffffffffffffffffff16036106c9575f6040517f96c6fd1e0000000000000000000000000000000000000000000000000000000081526004016106c09190610fbc565b60405180910390fd5b5f73ffffffffffffffffffffffffffffffffffffffff168273ffffffffffffffffffffffffffffffffffffffff1603610739575f6040517fec442f050000000000000000000000000000000000000000000000000000000081526004016107309190610fbc565b60405180910390fd5b610744838383610a16565b505050565b5f73ffffffffffffffffffffffffffffffffffffffff168273ffffffffffffffffffffffffffffffffffffffff16036107b9575f6040517f96c6fd1e0000000000000000000000000000000000000000000000000000000081526004016107b09190610fbc565b60405180910390fd5b6107c4825f83610a16565b5050565b5f73ffffffffffffffffffffffffffffffffffffffff168273ffffffffffffffffffffffffffffffffffffffff1603610838575f6040517fec442f0500000000000000000000000000000000000000000000000000000000815260040161082f9190610fbc565b60405180910390fd5b6108435f8383610a16565b5050565b5f73ffffffffffffffffffffffffffffffffffffffff168473ffffffffffffffffffffffffffffffffffffffff16036108b7575f6040517fe602df050000000000000000000000000000000000000000000000000000000081526004016108ae9190610fbc565b60405180910390fd5b5f73ffffffffffffffffffffffffffffffffffffffff168373ffffffffffffffffffffffffffffffffffffffff1603610927575f6040517f94280d6200000000000000000000000000000000000000000000000000000000815260040161091e9190610fbc565b60405180910390fd5b8160015f8673ffffffffffffffffffffffffffffffffffffffff1673ffffffffffffffffffffffffffffffffffffffff1681526020019081526020015f205f8573ffffffffffffffffffffffffffffffffffffffff1673ffffffffffffffffffffffffffffffffffffffff1681526020019081526020015f20819055508015610a10578273ffffffffffffffffffffffffffffffffffffffff168473ffffffffffffffffffffffffffffffffffffffff167f8c5be1e5ebec7d5bd14f71427d1e84f3dd0314c0f7b2291e5b200ac8c7c3b92584604051610a079190610dea565b60405180910390a35b50505050565b5f73ffffffffffffffffffffffffffffffffffffffff168373ffffffffffffffffffffffffffffffffffffffff1603610a66578060025f828254610a5a9190611002565b92505081905550610b34565b5f805f8573ffffffffffffffffffffffffffffffffffffffff1673ffffffffffffffffffffffffffffffffffffffff1681526020019081526020015f2054905081811015610aef578381836040517fe450d38c000000000000000000000000000000000000000000000000000000008152600401610ae693929190610f87565b60405180910390fd5b8181035f808673ffffffffffffffffffffffffffffffffffffffff1673ffffffffffffffffffffffffffffffffffffffff1681526020019081526020015f2081905550505b5f73ffffffffffffffffffffffffffffffffffffffff168273ffffffffffffffffffffffffffffffffffffffff1603610b7b578060025f8282540392505081905550610bc5565b805f808473ffffffffffffffffffffffffffffffffffffffff1673ffffffffffffffffffffffffffffffffffffffff1681526020019081526020015f205f82825401925050819055505b8173ffffffffffffffffffffffffffffffffffffffff168373ffffffffffffffffffffffffffffffffffffffff167fddf252ad1be2c89b69c2b068fc378daa952ba7f163c4a11628f55a4df523b3ef83604051610c229190610dea565b60405180910390a3505050565b5f81519050919050565b5f82825260208201905092915050565b5f5b83811015610c66578082015181840152602081019050610c4b565b5f8484015250505050565b5f601f19601f8301169050919050565b5f610c8b82610c2f565b610c958185610c39565b9350610ca5818560208601610c49565b610cae81610c71565b840191505092915050565b5f6020820190508181035f830152610cd18184610c81565b905092915050565b5f80fd5b5f73ffffffffffffffffffffffffffffffffffffffff82169050919050565b5f610d0682610cdd565b9050919050565b610d1681610cfc565b8114610d20575f80fd5b50565b5f81359050610d3181610d0d565b92915050565b5f819050919050565b610d4981610d37565b8114610d53575f80fd5b50565b5f81359050610d6481610d40565b92915050565b5f8060408385031215610d8057610d7f610cd9565b5b5f610d8d85828601610d23565b9250506020610d9e85828601610d56565b9150509250929050565b5f8115159050919050565b610dbc81610da8565b82525050565b5f602082019050610dd55f830184610db3565b92915050565b610de481610d37565b82525050565b5f602082019050610dfd5f830184610ddb565b92915050565b5f805f60608486031215610e1a57610e19610cd9565b5b5f610e2786828701610d23565b9350506020610e3886828701610d23565b9250506040610e4986828701610d56565b9150509250925092565b5f60208284031215610e6857610e67610cd9565b5b5f610e7584828501610d56565b91505092915050565b5f60ff82169050919050565b610e9381610e7e565b82525050565b5f602082019050610eac5f830184610e8a565b92915050565b5f60208284031215610ec757610ec6610cd9565b5b5f610ed484828501610d23565b91505092915050565b5f8060408385031215610ef357610ef2610cd9565b5b5f610f0085828601610d23565b9250506020610f1185828601610d23565b9150509250929050565b7f4e487b71000000000000000000000000000000000000000000000000000000005f52602260045260245ffd5b5f6002820490506001821680610f5f57607f821691505b602082108103610f7257610f71610f1b565b5b50919050565b610f8181610cfc565b82525050565b5f606082019050610f9a5f830186610f78565b610fa76020830185610ddb565b610fb46040830184610ddb565b949350505050565b5f602082019050610fcf5f830184610f78565b92915050565b7f4e487b71000000000000000000000000000000000000000000000000000000005f52601160045260245ffd5b5f61100c82610d37565b915061101783610d37565b925082820190508082111561102f5761102e610fd5565b5b9291505056fea26469706673582212205412dedd0b30864805b7997f1f13845eafcbf915e8c1f708c9c3b0485e2523ad64736f6c63430008140033","linkReferences":{}},"methodIdentifiers":{"allowance(address,address)":"dd62ed3e","approve(address,uint256)":"095ea7b3","balanceOf(address)":"70a08231","decimals()":"313ce567","deposit()":"d0e30db0","mint(address,uint256)":"40c10f19","name()":"06fdde03","symbol()":"95d89b41","totalSupply()":"18160ddd","transfer(address,uint256)":"a9059cbb","transferFrom(address,address,uint256)":"23b872dd","withdraw(uint256)":"2e1a7d4d"},"id":38}