{"abi":[{"type":"constructor","inputs":[],"stateMutability":"nonpayable"},{"type":"function","name":"FEE","inputs":[],"outputs":[{"name":"","type":"uint256","internalType":"uint256"}],"stateMutability":"view"},{"type":"function","name":"INITIAL_SUPPLY","inputs":[],"outputs":[{"name":"","type":"uint256","internalType":"uint256"}],"stateMutability":"view"},{"type":"function","name":"PRECISION","inputs":[],"outputs":[{"name":"","type":"uint256","internalType":"uint256"}],"stateMutability":"view"},{"type":"function","name":"USER_AMOUNT","inputs":[],"outputs":[{"name":"","type":"uint256","internalType":"uint256"}],"stateMutability":"view"},{"type":"function","name":"allowance","inputs":[{"name":"owner","type":"address","internalType":"address"},{"name":"spender","type":"address","internalType":"address"}],"outputs":[{"name":"","type":"uint256","internalType":"uint256"}],"stateMutability":"view"},{"type":"function","name":"approve","inputs":[{"name":"spender","type":"address","internalType":"address"},{"name":"value","type":"uint256","internalType":"uint256"}],"outputs":[{"name":"","type":"bool","internalType":"bool"}],"stateMutability":"nonpayable"},{"type":"function","name":"balanceOf","inputs":[{"name":"account","type":"address","internalType":"address"}],"outputs":[{"name":"","type":"uint256","internalType":"uint256"}],"stateMutability":"view"},{"type":"function","name":"count","inputs":[],"outputs":[{"name":"","type":"uint256","internalType":"uint256"}],"stateMutability":"view"},{"type":"function","name":"decimals","inputs":[],"outputs":[{"name":"","type":"uint8","internalType":"uint8"}],"stateMutability":"view"},{"type":"function","name":"name","inputs":[],"outputs":[{"name":"","type":"string","internalType":"string"}],"stateMutability":"view"},{"type":"function","name":"owner","inputs":[],"outputs":[{"name":"","type":"address","internalType":"address"}],"stateMutability":"view"},{"type":"function","name":"symbol","inputs":[],"outputs":[{"name":"","type":"string","internalType":"string"}],"stateMutability":"view"},{"type":"function","name":"totalSupply","inputs":[],"outputs":[{"name":"","type":"uint256","internalType":"uint256"}],"stateMutability":"view"},{"type":"function","name":"transfer","inputs":[{"name":"to","type":"address","internalType":"address"},{"name":"value","type":"uint256","internalType":"uint256"}],"outputs":[{"name":"","type":"bool","internalType":"bool"}],"stateMutability":"nonpayable"},{"type":"function","name":"transferFrom","inputs":[{"name":"from","type":"address","internalType":"address"},{"name":"to","type":"address","internalType":"address"},{"name":"value","type":"uint256","internalType":"uint256"}],"outputs":[{"name":"","type":"bool","internalType":"bool"}],"stateMutability":"nonpayable"},{"type":"event","name":"Approval","inputs":[{"name":"owner","type":"address","indexed":true,"internalType":"address"},{"name":"spender","type":"address","indexed":true,"internalType":"address"},{"name":"value","type":"uint256","indexed":false,"internalType":"uint256"}],"anonymous":false},{"type":"event","name":"Transfer","inputs":[{"name":"from","type":"address","indexed":true,"internalType":"address"},{"name":"to","type":"address","indexed":true,"internalType":"address"},{"name":"value","type":"uint256","indexed":false,"internalType":"uint256"}],"anonymous":false},{"type":"error","name":"ERC20InsufficientAllowance","inputs":[{"name":"spender","type":"address","internalType":"address"},{"name":"allowance","type":"uint256","internalType":"uint256"},{"name":"needed","type":"uint256","internalType":"uint256"}]},{"type":"error","name":"ERC20InsufficientBalance","inputs":[{"name":"sender","type":"address","internalType":"address"},{"name":"balance","type":"uint256","internalType":"uint256"},{"name":"needed","type":"uint256","internalType":"uint256"}]},{"type":"error","name":"ERC20InvalidApprover","inputs":[{"name":"approver","type":"address","internalType":"address"}]},{"type":"error","name":"ERC20InvalidReceiver","inputs":[{"name":"receiver","type":"address","internalType":"address"}]},{"type":"error","name":"ERC20InvalidSender","inputs":[{"name":"sender","type":"address","internalType":"address"}]},{"type":"error","name":"ERC20InvalidSpender","inputs":[{"name":"spender","type":"address","internalType":"address"}]}],"bytecode":{"object":"0x60a06040525f60055534801562000014575f80fd5b506040518060400160405280600e81526020017f4d6f636b5965696c6445524332300000000000000000000000000000000000008152506040518060400160405280600681526020017f4d5945494c440000000000000000000000000000000000000000000000000000815250816003908162000092919062000713565b508060049081620000a4919062000713565b5050503373ffffffffffffffffffffffffffffffffffffffff1660808173ffffffffffffffffffffffffffffffffffffffff1681525050620000f73369d3c21bcecceda1000000620000fd60201b60201c565b62000a1d565b5f73ffffffffffffffffffffffffffffffffffffffff168273ffffffffffffffffffffffffffffffffffffffff160362000170575f6040517fec442f050000000000000000000000000000000000000000000000000000000081526004016200016791906200083a565b60405180910390fd5b620001835f83836200018760201b60201c565b5050565b60805173ffffffffffffffffffffffffffffffffffffffff168273ffffffffffffffffffffffffffffffffffffffff1603620001d657620001d08383836200028b60201b60201c565b62000286565b600a6005541062000258575f6064605a83620001f3919062000882565b620001ff9190620008f9565b90505f6064600a8462000213919062000882565b6200021f9190620008f9565b90505f6005819055506200023b8585846200028b60201b60201c565b6200025085608051836200028b60201b60201c565b505062000285565b60055f8154809291906200026c9062000930565b9190505550620002848383836200028b60201b60201c565b5b5b505050565b5f73ffffffffffffffffffffffffffffffffffffffff168373ffffffffffffffffffffffffffffffffffffffff1603620002df578060025f828254620002d291906200097c565b92505081905550620003b0565b5f805f8573ffffffffffffffffffffffffffffffffffffffff1673ffffffffffffffffffffffffffffffffffffffff1681526020019081526020015f20549050818110156200036b578381836040517fe450d38c0000000000000000000000000000000000000000000000000000000081526004016200036293929190620009c7565b60405180910390fd5b8181035f808673ffffffffffffffffffffffffffffffffffffffff1673ffffffffffffffffffffffffffffffffffffffff1681526020019081526020015f2081905550505b5f73ffffffffffffffffffffffffffffffffffffffff168273ffffffffffffffffffffffffffffffffffffffff1603620003f9578060025f828254039250508190555062000443565b805f808473ffffffffffffffffffffffffffffffffffffffff1673ffffffffffffffffffffffffffffffffffffffff1681526020019081526020015f205f82825401925050819055505b8173ffffffffffffffffffffffffffffffffffffffff168373ffffffffffffffffffffffffffffffffffffffff167fddf252ad1be2c89b69c2b068fc378daa952ba7f163c4a11628f55a4df523b3ef83604051620004a2919062000a02565b60405180910390a3505050565b5f81519050919050565b7f4e487b71000000000000000000000000000000000000000000000000000000005f52604160045260245ffd5b7f4e487b71000000000000000000000000000000000000000000000000000000005f52602260045260245ffd5b5f60028204905060018216806200052b57607f821691505b602082108103620005415762000540620004e6565b5b50919050565b5f819050815f5260205f209050919050565b5f6020601f8301049050919050565b5f82821b905092915050565b5f60088302620005a57fffffffffffffffffffffffffffffffffffffffffffffffffffffffffffffffff8262000568565b620005b1868362000568565b95508019841693508086168417925050509392505050565b5f819050919050565b5f819050919050565b5f620005fb620005f5620005ef84620005c9565b620005d2565b620005c9565b9050919050565b5f819050919050565b6200061683620005db565b6200062e620006258262000602565b84845462000574565b825550505050565b5f90565b6200064462000636565b620006518184846200060b565b505050565b5b8181101562000678576200066c5f826200063a565b60018101905062000657565b5050565b601f821115620006c757620006918162000547565b6200069c8462000559565b81016020851015620006ac578190505b620006c4620006bb8562000559565b83018262000656565b50505b505050565b5f82821c905092915050565b5f620006e95f1984600802620006cc565b1980831691505092915050565b5f620007038383620006d8565b9150826002028217905092915050565b6200071e82620004af565b67ffffffffffffffff8111156200073a5762000739620004b9565b5b62000746825462000513565b620007538282856200067c565b5f60209050601f83116001811462000789575f841562000774578287015190505b620007808582620006f6565b865550620007ef565b601f198416620007998662000547565b5f5b82811015620007c2578489015182556001820191506020850194506020810190506200079b565b86831015620007e25784890151620007de601f891682620006d8565b8355505b6001600288020188555050505b505050505050565b5f73ffffffffffffffffffffffffffffffffffffffff82169050919050565b5f6200082282620007f7565b9050919050565b620008348162000816565b82525050565b5f6020820190506200084f5f83018462000829565b92915050565b7f4e487b71000000000000000000000000000000000000000000000000000000005f52601160045260245ffd5b5f6200088e82620005c9565b91506200089b83620005c9565b9250828202620008ab81620005c9565b91508282048414831517620008c557620008c462000855565b5b5092915050565b7f4e487b71000000000000000000000000000000000000000000000000000000005f52601260045260245ffd5b5f6200090582620005c9565b91506200091283620005c9565b925082620009255762000924620008cc565b5b828204905092915050565b5f6200093c82620005c9565b91507fffffffffffffffffffffffffffffffffffffffffffffffffffffffffffffffff820362000971576200097062000855565b5b600182019050919050565b5f6200098882620005c9565b91506200099583620005c9565b9250828201905080821115620009b057620009af62000855565b5b92915050565b620009c181620005c9565b82525050565b5f606082019050620009dc5f83018662000829565b620009eb6020830185620009b6565b620009fa6040830184620009b6565b949350505050565b5f60208201905062000a175f830184620009b6565b92915050565b60805161115062000a445f395f818161045f0152818161093101526109ec01526111505ff3fe608060405234801561000f575f80fd5b50600436106100f3575f3560e01c806370a0823111610095578063aaf5eb6811610064578063aaf5eb6814610289578063c57981b5146102a7578063dd62ed3e146102c5578063fb53ce61146102f5576100f3565b806370a08231146101ed5780638da5cb5b1461021d57806395d89b411461023b578063a9059cbb14610259576100f3565b806318160ddd116100d157806318160ddd1461016357806323b872dd146101815780632ff2e9dc146101b1578063313ce567146101cf576100f3565b806306661abd146100f757806306fdde0314610115578063095ea7b314610133575b5f80fd5b6100ff610313565b60405161010c9190610c72565b60405180910390f35b61011d610319565b60405161012a9190610d15565b60405180910390f35b61014d60048036038101906101489190610dbd565b6103a9565b60405161015a9190610e15565b60405180910390f35b61016b6103cb565b6040516101789190610c72565b60405180910390f35b61019b60048036038101906101969190610e2e565b6103d4565b6040516101a89190610e15565b60405180910390f35b6101b9610402565b6040516101c69190610c72565b60405180910390f35b6101d7610410565b6040516101e49190610e99565b60405180910390f35b61020760048036038101906102029190610eb2565b610418565b6040516102149190610c72565b60405180910390f35b61022561045d565b6040516102329190610eec565b60405180910390f35b610243610481565b6040516102509190610d15565b60405180910390f35b610273600480360381019061026e9190610dbd565b610511565b6040516102809190610e15565b60405180910390f35b610291610533565b60405161029e9190610c72565b60405180910390f35b6102af610538565b6040516102bc9190610c72565b60405180910390f35b6102df60048036038101906102da9190610f05565b61053d565b6040516102ec9190610c72565b60405180910390f35b6102fd6105bf565b60405161030a9190610c72565b60405180910390f35b60055481565b60606003805461032890610f70565b80601f016020809104026020016040519081016040528092919081815260200182805461035490610f70565b801561039f5780601f106103765761010080835404028352916020019161039f565b820191905f5260205f20905b81548152906001019060200180831161038257829003601f168201915b5050505050905090565b5f806103b36105c4565b90506103c08185856105cb565b600191505092915050565b5f600254905090565b5f806103de6105c4565b90506103eb8582856105dd565b6103f6858585610670565b60019150509392505050565b69d3c21bcecceda100000081565b5f6012905090565b5f805f8373ffffffffffffffffffffffffffffffffffffffff1673ffffffffffffffffffffffffffffffffffffffff1681526020019081526020015f20549050919050565b7f000000000000000000000000000000000000000000000000000000000000000081565b60606004805461049090610f70565b80601f01602080910402602001604051908101604052809291908181526020018280546104bc90610f70565b80156105075780601f106104de57610100808354040283529160200191610507565b820191905f5260205f20905b8154815290600101906020018083116104ea57829003601f168201915b5050505050905090565b5f8061051b6105c4565b9050610528818585610670565b600191505092915050565b606481565b600a81565b5f60015f8473ffffffffffffffffffffffffffffffffffffffff1673ffffffffffffffffffffffffffffffffffffffff1681526020019081526020015f205f8373ffffffffffffffffffffffffffffffffffffffff1673ffffffffffffffffffffffffffffffffffffffff1681526020019081526020015f2054905092915050565b605a81565b5f33905090565b6105d88383836001610760565b505050565b5f6105e8848461053d565b90507fffffffffffffffffffffffffffffffffffffffffffffffffffffffffffffffff81101561066a578181101561065b578281836040517ffb8f41b200000000000000000000000000000000000000000000000000000000815260040161065293929190610fa0565b60405180910390fd5b61066984848484035f610760565b5b50505050565b5f73ffffffffffffffffffffffffffffffffffffffff168373ffffffffffffffffffffffffffffffffffffffff16036106e0575f6040517f96c6fd1e0000000000000000000000000000000000000000000000000000000081526004016106d79190610eec565b60405180910390fd5b5f73ffffffffffffffffffffffffffffffffffffffff168273ffffffffffffffffffffffffffffffffffffffff1603610750575f6040517fec442f050000000000000000000000000000000000000000000000000000000081526004016107479190610eec565b60405180910390fd5b61075b83838361092f565b505050565b5f73ffffffffffffffffffffffffffffffffffffffff168473ffffffffffffffffffffffffffffffffffffffff16036107d0575f6040517fe602df050000000000000000000000000000000000000000000000000000000081526004016107c79190610eec565b60405180910390fd5b5f73ffffffffffffffffffffffffffffffffffffffff168373ffffffffffffffffffffffffffffffffffffffff1603610840575f6040517f94280d620000000000000000000000000000000000000000000000000000000081526004016108379190610eec565b60405180910390fd5b8160015f8673ffffffffffffffffffffffffffffffffffffffff1673ffffffffffffffffffffffffffffffffffffffff1681526020019081526020015f205f8573ffffffffffffffffffffffffffffffffffffffff1673ffffffffffffffffffffffffffffffffffffffff1681526020019081526020015f20819055508015610929578273ffffffffffffffffffffffffffffffffffffffff168473ffffffffffffffffffffffffffffffffffffffff167f8c5be1e5ebec7d5bd14f71427d1e84f3dd0314c0f7b2291e5b200ac8c7c3b925846040516109209190610c72565b60405180910390a35b50505050565b7f000000000000000000000000000000000000000000000000000000000000000073ffffffffffffffffffffffffffffffffffffffff168273ffffffffffffffffffffffffffffffffffffffff16036109925761098d838383610a41565b610a3c565b600a60055410610a18575f6064605a836109ac9190611002565b6109b69190611070565b90505f6064600a846109c89190611002565b6109d29190611070565b90505f6005819055506109e6858584610a41565b610a11857f000000000000000000000000000000000000000000000000000000000000000083610a41565b5050610a3b565b60055f815480929190610a2a906110a0565b9190505550610a3a838383610a41565b5b5b505050565b5f73ffffffffffffffffffffffffffffffffffffffff168373ffffffffffffffffffffffffffffffffffffffff1603610a91578060025f828254610a8591906110e7565b92505081905550610b5f565b5f805f8573ffffffffffffffffffffffffffffffffffffffff1673ffffffffffffffffffffffffffffffffffffffff1681526020019081526020015f2054905081811015610b1a578381836040517fe450d38c000000000000000000000000000000000000000000000000000000008152600401610b1193929190610fa0565b60405180910390fd5b8181035f808673ffffffffffffffffffffffffffffffffffffffff1673ffffffffffffffffffffffffffffffffffffffff1681526020019081526020015f2081905550505b5f73ffffffffffffffffffffffffffffffffffffffff168273ffffffffffffffffffffffffffffffffffffffff1603610ba6578060025f8282540392505081905550610bf0565b805f808473ffffffffffffffffffffffffffffffffffffffff1673ffffffffffffffffffffffffffffffffffffffff1681526020019081526020015f205f82825401925050819055505b8173ffffffffffffffffffffffffffffffffffffffff168373ffffffffffffffffffffffffffffffffffffffff167fddf252ad1be2c89b69c2b068fc378daa952ba7f163c4a11628f55a4df523b3ef83604051610c4d9190610c72565b60405180910390a3505050565b5f819050919050565b610c6c81610c5a565b82525050565b5f602082019050610c855f830184610c63565b92915050565b5f81519050919050565b5f82825260208201905092915050565b5f5b83811015610cc2578082015181840152602081019050610ca7565b5f8484015250505050565b5f601f19601f8301169050919050565b5f610ce782610c8b565b610cf18185610c95565b9350610d01818560208601610ca5565b610d0a81610ccd565b840191505092915050565b5f6020820190508181035f830152610d2d8184610cdd565b905092915050565b5f80fd5b5f73ffffffffffffffffffffffffffffffffffffffff82169050919050565b5f610d6282610d39565b9050919050565b610d7281610d58565b8114610d7c575f80fd5b50565b5f81359050610d8d81610d69565b92915050565b610d9c81610c5a565b8114610da6575f80fd5b50565b5f81359050610db781610d93565b92915050565b5f8060408385031215610dd357610dd2610d35565b5b5f610de085828601610d7f565b9250506020610df185828601610da9565b9150509250929050565b5f8115159050919050565b610e0f81610dfb565b82525050565b5f602082019050610e285f830184610e06565b92915050565b5f805f60608486031215610e4557610e44610d35565b5b5f610e5286828701610d7f565b9350506020610e6386828701610d7f565b9250506040610e7486828701610da9565b9150509250925092565b5f60ff82169050919050565b610e9381610e7e565b82525050565b5f602082019050610eac5f830184610e8a565b92915050565b5f60208284031215610ec757610ec6610d35565b5b5f610ed484828501610d7f565b91505092915050565b610ee681610d58565b82525050565b5f602082019050610eff5f830184610edd565b92915050565b5f8060408385031215610f1b57610f1a610d35565b5b5f610f2885828601610d7f565b9250506020610f3985828601610d7f565b9150509250929050565b7f4e487b71000000000000000000000000000000000000000000000000000000005f52602260045260245ffd5b5f6002820490506001821680610f8757607f821691505b602082108103610f9a57610f99610f43565b5b50919050565b5f606082019050610fb35f830186610edd565b610fc06020830185610c63565b610fcd6040830184610c63565b949350505050565b7f4e487b71000000000000000000000000000000000000000000000000000000005f52601160045260245ffd5b5f61100c82610c5a565b915061101783610c5a565b925082820261102581610c5a565b9150828204841483151761103c5761103b610fd5565b5b5092915050565b7f4e487b71000000000000000000000000000000000000000000000000000000005f52601260045260245ffd5b5f61107a82610c5a565b915061108583610c5a565b92508261109557611094611043565b5b828204905092915050565b5f6110aa82610c5a565b91507fffffffffffffffffffffffffffffffffffffffffffffffffffffffffffffffff82036110dc576110db610fd5565b5b600182019050919050565b5f6110f182610c5a565b91506110fc83610c5a565b925082820190508082111561111457611113610fd5565b5b9291505056fea2646970667358221220687a7f1f17cf762bfe7d72ea858a42f07cc3924afff668702ce94c3849e74ea064736f6c63430008140033","linkReferences":{}},"methodIdentifiers":{"FEE()":"c57981b5","INITIAL_SUPPLY()":"2ff2e9dc","PRECISION()":"aaf5eb68","USER_AMOUNT()":"fb53ce61","allowance(address,address)":"dd62ed3e","approve(address,uint256)":"095ea7b3","balanceOf(address)":"70a08231","count()":"06661abd","decimals()":"313ce567","name()":"06fdde03","owner()":"8da5cb5b","symbol()":"95d89b41","totalSupply()":"18160ddd","transfer(address,uint256)":"a9059cbb","transferFrom(address,address,uint256)":"23b872dd"},"id":39}