{"abi":[{"type":"constructor","inputs":[{"name":"_supportedTokens","type":"address[]","internalType":"contract IERC20[]"}],"stateMutability":"nonpayable"},{"type":"function","name":"depositToken","inputs":[{"name":"token","type":"address","internalType":"contract IERC20"},{"name":"amount","type":"uint256","internalType":"uint256"}],"outputs":[],"stateMutability":"nonpayable"},{"type":"function","name":"tokenBalances","inputs":[{"name":"user","type":"address","internalType":"address"},{"name":"token","type":"address","internalType":"contract IERC20"}],"outputs":[{"name":"balance","type":"uint256","internalType":"uint256"}],"stateMutability":"view"},{"type":"function","name":"tokenIsSupported","inputs":[{"name":"","type":"address","internalType":"contract IERC20"}],"outputs":[{"name":"","type":"bool","internalType":"bool"}],"stateMutability":"view"},{"type":"function","name":"withdrawToken","inputs":[{"name":"token","type":"address","internalType":"contract IERC20"}],"outputs":[],"stateMutability":"nonpayable"},{"type":"error","name":"HandlerStatefulFuzzCatches__UnsupportedToken","inputs":[]},{"type":"error","name":"SafeERC20FailedOperation","inputs":[{"name":"token","type":"address","internalType":"address"}]}],"bytecode":{"object":"0x608060405234801562000010575f80fd5b5060405162000c5d38038062000c5d8339818101604052810190620000369190620002c2565b5f5b8151811015620000c95760015f808484815181106200005c576200005b62000311565b5b602002602001015173ffffffffffffffffffffffffffffffffffffffff1673ffffffffffffffffffffffffffffffffffffffff1681526020019081526020015f205f6101000a81548160ff0219169083151502179055508080620000c09062000374565b91505062000038565b5050620003c0565b5f604051905090565b5f80fd5b5f80fd5b5f80fd5b5f601f19601f8301169050919050565b7f4e487b71000000000000000000000000000000000000000000000000000000005f52604160045260245ffd5b6200012e82620000e6565b810181811067ffffffffffffffff8211171562000150576200014f620000f6565b5b80604052505050565b5f62000164620000d1565b905062000172828262000123565b919050565b5f67ffffffffffffffff821115620001945762000193620000f6565b5b602082029050602081019050919050565b5f80fd5b5f73ffffffffffffffffffffffffffffffffffffffff82169050919050565b5f620001d482620001a9565b9050919050565b5f620001e782620001c8565b9050919050565b620001f981620001db565b811462000204575f80fd5b50565b5f815190506200021781620001ee565b92915050565b5f620002336200022d8462000177565b62000159565b90508083825260208201905060208402830185811115620002595762000258620001a5565b5b835b8181101562000286578062000271888262000207565b8452602084019350506020810190506200025b565b5050509392505050565b5f82601f830112620002a757620002a6620000e2565b5b8151620002b98482602086016200021d565b91505092915050565b5f60208284031215620002da57620002d9620000da565b5b5f82015167ffffffffffffffff811115620002fa57620002f9620000de565b5b620003088482850162000290565b91505092915050565b7f4e487b71000000000000000000000000000000000000000000000000000000005f52603260045260245ffd5b7f4e487b71000000000000000000000000000000000000000000000000000000005f52601160045260245ffd5b5f819050919050565b5f62000380826200036b565b91507fffffffffffffffffffffffffffffffffffffffffffffffffffffffffffffffff8203620003b557620003b46200033e565b5b600182019050919050565b61088f80620003ce5f395ff3fe608060405234801561000f575f80fd5b506004361061004a575f3560e01c8063338b5dea1461004e5780634dbf6c5a1461006a578063894760691461009a578063e7061950146100b6575b5f80fd5b61006860048036038101906100639190610649565b6100e6565b005b610084600480360381019061007f91906106b1565b610226565b60405161009191906106fe565b60405180910390f35b6100b460048036038101906100af9190610717565b610246565b005b6100d060048036038101906100cb9190610717565b6103ef565b6040516100dd919061075c565b60405180910390f35b815f808273ffffffffffffffffffffffffffffffffffffffff1673ffffffffffffffffffffffffffffffffffffffff1681526020019081526020015f205f9054906101000a900460ff16610166576040517f43d95d0700000000000000000000000000000000000000000000000000000000815260040160405180910390fd5b8160015f3373ffffffffffffffffffffffffffffffffffffffff1673ffffffffffffffffffffffffffffffffffffffff1681526020019081526020015f205f8573ffffffffffffffffffffffffffffffffffffffff1673ffffffffffffffffffffffffffffffffffffffff1681526020019081526020015f205f8282546101ed91906107a2565b925050819055506102213330848673ffffffffffffffffffffffffffffffffffffffff1661040b909392919063ffffffff16565b505050565b6001602052815f5260405f20602052805f5260405f205f91509150505481565b805f808273ffffffffffffffffffffffffffffffffffffffff1673ffffffffffffffffffffffffffffffffffffffff1681526020019081526020015f205f9054906101000a900460ff166102c6576040517f43d95d0700000000000000000000000000000000000000000000000000000000815260040160405180910390fd5b5f60015f3373ffffffffffffffffffffffffffffffffffffffff1673ffffffffffffffffffffffffffffffffffffffff1681526020019081526020015f205f8473ffffffffffffffffffffffffffffffffffffffff1673ffffffffffffffffffffffffffffffffffffffff1681526020019081526020015f205490505f60015f3373ffffffffffffffffffffffffffffffffffffffff1673ffffffffffffffffffffffffffffffffffffffff1681526020019081526020015f205f8573ffffffffffffffffffffffffffffffffffffffff1673ffffffffffffffffffffffffffffffffffffffff1681526020019081526020015f20819055506103ea33828573ffffffffffffffffffffffffffffffffffffffff1661048d9092919063ffffffff16565b505050565b5f602052805f5260405f205f915054906101000a900460ff1681565b610487848573ffffffffffffffffffffffffffffffffffffffff166323b872dd868686604051602401610440939291906107e4565b604051602081830303815290604052915060e01b6020820180517bffffffffffffffffffffffffffffffffffffffffffffffffffffffff838183161783525050505061050c565b50505050565b610507838473ffffffffffffffffffffffffffffffffffffffff1663a9059cbb85856040516024016104c0929190610819565b604051602081830303815290604052915060e01b6020820180517bffffffffffffffffffffffffffffffffffffffffffffffffffffffff838183161783525050505061050c565b505050565b5f8060205f8451602086015f885af18061052b576040513d5f823e3d81fd5b3d92505f519150505f821461054457600181141561055f565b5f8473ffffffffffffffffffffffffffffffffffffffff163b145b156105a157836040517f5274afe70000000000000000000000000000000000000000000000000000000081526004016105989190610840565b60405180910390fd5b50505050565b5f80fd5b5f73ffffffffffffffffffffffffffffffffffffffff82169050919050565b5f6105d4826105ab565b9050919050565b5f6105e5826105ca565b9050919050565b6105f5816105db565b81146105ff575f80fd5b50565b5f81359050610610816105ec565b92915050565b5f819050919050565b61062881610616565b8114610632575f80fd5b50565b5f813590506106438161061f565b92915050565b5f806040838503121561065f5761065e6105a7565b5b5f61066c85828601610602565b925050602061067d85828601610635565b9150509250929050565b610690816105ca565b811461069a575f80fd5b50565b5f813590506106ab81610687565b92915050565b5f80604083850312156106c7576106c66105a7565b5b5f6106d48582860161069d565b92505060206106e585828601610602565b9150509250929050565b6106f881610616565b82525050565b5f6020820190506107115f8301846106ef565b92915050565b5f6020828403121561072c5761072b6105a7565b5b5f61073984828501610602565b91505092915050565b5f8115159050919050565b61075681610742565b82525050565b5f60208201905061076f5f83018461074d565b92915050565b7f4e487b71000000000000000000000000000000000000000000000000000000005f52601160045260245ffd5b5f6107ac82610616565b91506107b783610616565b92508282019050808211156107cf576107ce610775565b5b92915050565b6107de816105ca565b82525050565b5f6060820190506107f75f8301866107d5565b61080460208301856107d5565b61081160408301846106ef565b949350505050565b5f60408201905061082c5f8301856107d5565b61083960208301846106ef565b9392505050565b5f6020820190506108535f8301846107d5565b9291505056fea2646970667358221220ed0a06fc1c54ca74164d11875d6e460426d1de6be38c0c98e89c6a12c863452364736f6c63430008140033","linkReferences":{}},"methodIdentifiers":{"depositToken(address,uint256)":"338b5dea","tokenBalances(address,address)":"4dbf6c5a","tokenIsSupported(address)":"e7061950","withdrawToken(address)":"89476069"},"id":28}